:100000000C94AC000C9413030C94D4000C94D40006
:100010000C94D4000C94D4000C94D4000C94D40010
:100020000C94D4000C94D4000C94D4000C94D40000
:100030000C94D4000C94D4000C94D4000C94D400F0
:100040000C94B0020C94D4000C947E020C945802D0
:100050000C94D4000C94D4000C94D4000C94D400D0
:100060000C94D4000C94D40000000000250028005B
:100070002B0000000000240027002A0005010906CB
:10008000A101050719E029E715002501750195086B
:100090008102950675082565190029658100C0183B
:1000A000035500730062004B006500790062006F29
:1000B000006100720064002003720061006E006342
:1000C00000690064006200610063006F006E002E32
:1000D0000063006F006D000403090409022200019F
:1000E0000100803209040000010300000009210121
:1000F0000100012223000705810308000A120110F4
:100100000100000008424231E1000101020001004B
:100110000000002300260029000404040404040451
:1001200004020202020202030303030303010204A6
:100130000810204080010204081020010204081069
:100140002000000008000201000003040700000076
:10015000000000000000340411241FBECFEFD4E0E3
:10016000DEBFCDBF11E0A0E0B1E0E6E2FFE002C0FB
:1001700005900D92AE36B107D9F722E0AEE6B1E0B8
:1001800001C01D92A537B207E1F710E0CCEAD0E03C
:1001900004C02197FE010E948607CB3AD107C9F718
:1001A0000E948C040C9491070C940000CF92DF9273
:1001B000EF92FF920F931F93CF93DF936C017A011D
:1001C0008B01C0E0D0E0CE15DF0589F0D8016D913C
:1001D0008D01D601ED91FC910190F081E02DC601D9
:1001E0000995892B11F47E0102C02196ECCFC7013D
:1001F000DF91CF911F910F91FF90EF90DF90CF9003
:100200000895089580E090E00895FC01538D448D99
:10021000252F30E0842F90E0821B930B541710F0B1
:10022000CF96089501970895FC01918D828D9817BE
:1002300061F0828DDF01A80FB11D5D968C91928DCA
:100240009F5F9F73928F90E008958FEF9FEF0895C7
:10025000FC01918D828D981731F0828DE80FF11D90
:10026000858D90E008958FEF9FEF0895FC01918DAB
:10027000228D892F90E0805C9F4F821B91098F73A4
:10028000992708958AE991E00E94360121E0892B9F
:1002900009F420E0822F0895FC01848DDF01A80F6E
:1002A000B11DA35ABF4F2C91848D90E001968F739E
:1002B0009927848FA689B7892C93A089B1898C91BD
:1002C00080648C93938D848D981306C00288F38983
:1002D000E02D80818F7D80830895EF92FF920F93B0
:1002E0001F93CF93DF93EC0181E0888F9B8D8C8DE2
:1002F000981305C0E889F989808185FD24C0F62E10
:100300000B8D10E00F5F1F4F0F731127E02E8C8DA8
:10031000E8120CC00FB607FCFACFE889F989808192
:1003200085FFF5CFCE010E944C01F1CF8B8DFE01F0
:10033000E80FF11DE35AFF4FF0820B8FEA89FB892A
:100340008081806207C0EE89FF896083E889F9892E
:1003500080818064808381E090E0DF91CF911F9164
:100360000F91FF90EF900895CF93DF93EC01888D6C
:100370008823C9F0EA89FB89808185FD05C0A889A9
:10038000B9898C9186FD0FC00FB607FCF5CF80812F
:1003900085FFF2CFA889B9898C9185FFEDCFCE0179
:1003A0000E944C01E7CFDF91CF91089580E090E06B
:1003B000892B29F00E94420181110C9400000895BC
:1003C0008E3008F08E508770806480937C0080911E
:1003D0007A00806480937A0080917A0086FDFCCF59
:1003E000809178002091790090E0922B08953FB79A
:1003F000F8948091730190917401A0917501B0916E
:10040000760126B5A89B05C02F3F19F00196A11DC6
:10041000B11D3FBFBA2FA92F982F8827820F911D9A
:10042000A11DB11DBC01CD0142E0660F771F881FE1
:10043000991F4A95D1F70895CF93C62F20914D0269
:1004400024FF07C030914E0228E8232720934E0254
:1004500003C02AE520934D02DC01EFE4F2E09C2F7B
:100460009E0F8D918193892F8E1B1816D4F36C2FBC
:100470008FE492E00E940F03CC5FC0934D02CF91B6
:100480000895E8E3F2E096E09E0F882321F02081B2
:10049000281301C0108231969E13F7CF67E087E3DF
:1004A00092E00E941C0281E090E008950E948C0777
:1004B0001F920F920FB60F9211242F933F934F93D9
:1004C0005F936F937F938F939F93AF93BF93EF93BC
:1004D000FF938AE991E00E944C01FF91EF91BF9157
:1004E000AF919F918F917F916F915F914F913F91CC
:1004F0002F910F900FBE0F901F9018951F920F9283
:100500000FB60F9211242F938F939F93EF93FF9326
:10051000E091AA01F091AB018081E091B001F091EE
:10052000B10182FD12C090818091B3018F5F8F7302
:100530002091B401821751F0E091B301F0E0E6564A
:10054000FE4F958F8093B30101C08081FF91EF91A1
:100550009F918F912F910F900FBE0F901F90189524
:100560001F920F920FB60F9211242F933F938F93E8
:100570009F93AF93BF9380916F0190917001A09171
:100580007101B091720130916E0123E0230F2D377C
:1005900020F40196A11DB11D05C026E8230F029687
:1005A000A11DB11D20936E0180936F019093700186
:1005B000A0937101B09372018091730190917401C5
:1005C000A0917501B09176010196A11DB11D809396
:1005D000730190937401A0937501B0937601BF915C
:1005E000AF919F918F913F912F910F900FBE0F90E0
:1005F0001F901895A82FB92F80E090E041E050EAB5
:10060000609530E009C02D9182279795879510F06D
:1006100084279527305EC8F36F5FA8F30895EADF5B
:100620008D939D930895CF93CFB7CF93DF93C395C9
:100630004C9BE9F74C9B0BC04C9B09C04C9B07C0E3
:100640004C9B05C04C9B03C04C9B01C08BC06F935F
:10065000C0915B02DD27C15ADD4F2F9365E54C9BAE
:1006600003C02F916F91E6CF0F931F934F9320E01C
:1006700040E15F9309B1047104FB27F93F9350E017
:100680003BE039C0147140642F77012F5F5F1EC0BB
:10069000406819B114712F7752501FC0406409B1DE
:1006A0002F770471D1F15F5F00C023C0406219B1A0
:1006B0002F77147191F15F5F00C025C0047110277E
:1006C000515012F45D5F0000115027952C3F19B175
:1006D000C8F614710127015027952C3FC8F6422710
:1006E000499309B1047110274F73115027952C3F7E
:1006F000A8F64695469519B1147179F00127015075
:1007000027952C3F98F66B5A60F3315009B1B0F63B
:1007100000C011E01CBB002719C03B503195C31B22
:10072000D04011E01CBB0881033C09F10B34F9F007
:10073000209159021981110F1213EDCF4A81441FE4
:10074000093651F10D3211F0013E29F700935E0296
:100750003F915F914F911F910F912F916F91CCB36A
:10076000C0FD65CFDF91CF91CFBFCF91189520917C
:100770005E02222369F310915C02112391F534305B
:1007800092F130935C0220935A0210915B023BE09D
:10079000311B30935B0227C000915C0201300CF5E5
:1007A0000AE54F7049F43091010134FD1DC00093FA
:1007B0000101C2E4D2E01CC030914D0234FD14C0EE
:1007C00000934D02CEE4D2E013C0052710E000C034
:1007D00000000BB91AC0052710E0221F1DC010E051
:1007E00021C04AE502C032ED432FC4E1D0E032E03F
:1007F0001AB114615C9A0BB11AB954E120E865E3AF
:1008000020FF05270BB9279517951C3FF0F6669535
:10081000B8F7B1F720FF05270BB9279517951C3FAF
:10082000D0F62795179517FF052700001C3F0BB939
:10083000B0F629913A9519F70B7E10915D02110FD0
:10084000C651D0400BB911F01093590211E01CBBF6
:1008500000611AB11B7E402F4B7E54E05A95F1F790
:100860000BB91AB94BB974CFEAE9F1E013821282DD
:1008700088EE93E0A0E0B0E084839583A683B783FD
:1008800080E691E09183808385EC90E09587848772
:1008900084EC90E09787868780EC90E0918B808B4A
:1008A00081EC90E0938B828B82EC90E0958B848B33
:1008B00086EC90E0978B868B118E128E138E148EA1
:1008C0001BB88AB18B6E8AB9F89455985D982FEF52
:1008D00084E39CE0215080409040E1F700C000009C
:1008E000559A5D9AE9E6F0E0808182608083E89A1B
:1008F000EDE4F2E08BE481838AE5808378941092C2
:100900003E0210923F02109240021092410264E0B7
:100910008EE392E00C941C02CF93DF931F92CDB72D
:10092000DEB7789484B5826084BD84B5816084BD6F
:1009300085B5826085BD85B5816085BD80916E007D
:10094000816080936E0010928100809181008260AE
:1009500080938100809181008160809381008091EB
:1009600080008160809380008091B10084608093DA
:10097000B1008091B00081608093B00080917A00D6
:10098000846080937A0080917A00826080937A00FC
:1009900080917A00816080937A0080917A008068EB
:1009A00080937A001092C10080916E0010926E00C8
:1009B000AEE3B1E0ECE7CE2EE1E0DE2E20E030E069
:1009C0004FEF50E0293031053CF58D919C91119706
:1009D0009927FC01E35DFE4F6491FC01E75EFE4F49
:1009E00084918823C9F090E0880F991FFC01EE588C
:1009F000FF4F05911491FC01E859FF4FE590F490E9
:100A00009FB7F894F8018081609586238083F70171
:100A10008081862380839FBFF601419351936F01AC
:100A20002F5F3F4F12962F30310509F0CBCFE09169
:100A3000AA01F091AB0182E08083E091A601F091E0
:100A4000A7011082E091A801F091A90180E18083C3
:100A50001092B201E091AE01F091AF0186E0808387
:100A6000E091AC01F091AD01808180618083E091E3
:100A7000AC01F091AD01808188608083E091AC0190
:100A8000F091AD01808180688083E091AC01F091AC
:100A9000AD0180818F7D80835CE7252E50E0352E6F
:100AA00044244A94512C88E392E026E0280F2983BD
:100AB00080915C02835087FDB6C090915B022091CB
:100AC0005A022D3209F0ADC0883009F0AAC0ECE01E
:100AD000F0E0E91BF109E15AFD4F83EC80934202FB
:100AE0008AE580930101109279018081807689F0F6
:100AF0002EE332E030937B0120937A01803209F0BB
:100B000086C081818A3009F082C083818093770119
:100B10007EC0928110924B028181811106C0109299
:100B20004C022BE432E082E06DC0853019F49093E2
:100B30005D0265C0863009F04CC08381813041F48C
:100B40008DEF90E090937B0180937A0182E13DC02C
:100B5000823041F48BED90E090937B0180937A0199
:100B600082E233C08330F1F4911108C087ED90E048
:100B700090937B0180937A0184E027C0913041F407
:100B800087EB90E090937B0180937A0180E21DC017
:100B90009230D1F48FE990E090937B0180937A01B9
:100BA00088E113C0813241F48DEE90E090937B0197
:100BB00080937A0189E009C0823231F430927B015E
:100BC00020927A0183E201C080E090E49093790161
:100BD0001FC0883069F0893019F4909378010FC0F4
:100BE0008A3049F08B3059F48BE480934E0207C071
:100BF00028E731E002C02BE432E081E003C02BE4BF
:100C000032E080E030937B0120937A0101C080E0E4
:100C10009781911104C09681981708F4892F8093C9
:100C2000000110925C028091010184FF48C0809114
:100C300000018F3F09F443C0182F893008F018E0F5
:100C4000811B809300019091420288E8892780935C
:100C50004202112331F120917A0130917B01809180
:100C6000790186FF0BC0A3E4B2E0F901812F820F66
:100C700094919D9331968E13FBCF09C0D901E3E483
:100C8000F2E0812F8E0F9D9191938E13FCCF8FEF09
:100C9000810F90E00196820F931F90937B018093C8
:100CA0007A01612F83E492E00E940F0364E0610FF8
:100CB0006C3019F08FEF809300016093010184E1A3
:100CC00099B1947131F48150D9F710925D0210926C
:100CD00059020E94F7014B015C0148EEC42E43E02B
:100CE000D42EE12CF12C0E94F701DC01CB018819F4
:100CF0009909AA09BB09883E9340A105B10558F09E
:100D000081E0C81AD108E108F108A8EE8A0EA3E034
:100D10009A1EA11CB11CC114D104E104F10419F7FD
:100D200090E2A92E91E0B92E22E0C22E21E0D22E2F
:100D30000EE311E03CE7832E31E0932EE12CF12C01
:100D4000F9E0EF16F1040CF047C0D8018D919C91A9
:100D50009927FC01EF5BFE4F3491FC01E35DFE4FF0
:100D60002491FC01E75EFE4FE491EE2309F43FC0BD
:100D7000332339F1333091F038F43130A9F0323087
:100D800001F584B58F7D12C0373091F03830A1F075
:100D90003430B9F4809180008F7D03C08091800051
:100DA0008F77809380000DC084B58F7784BD09C094
:100DB0008091B0008F7703C08091B0008F7D8093C9
:100DC000B000F0E0EE0FFF1FE15FFE4FA591B49180
:100DD000EC912E2361F01DC0F80180810E94E0019A
:100DE00064EF71E00E945E076130710591F081E06F
:100DF0000E94E0018D509E4F873E9340B0F085E009
:100E00000E94E0018D509E4F873E934008F052C0F3
:100E10000CC0D4018D919C918F3F910579F00E9477
:100E20004102F4015182408209C0F5016080718065
:100E3000D4018D919C9168167906B1F4FFEFEF1AF9
:100E4000FF0A22E0820E911C82E0A80EB11CA2E0F3
:100E5000CA0ED11C0E5F1F4FBFE0EB16F10409F064
:100E60006FCF0E94D60124CE8F3F910511F00E94D2
:100E70004102262DE8E3F2E08191821791F0B981D9
:100E8000BE13FACF80E090E0FC01E95CFD4F3181B8
:100E9000311102C0218305C0019686309105A1F76A
:100EA00005C067E087E392E00E941C02F4017182B2
:100EB0006082C4CFD6016D907C90BACF97FB072E8D
:100EC00016F4009407D077FD09D00E94720707FC42
:100ED00005D03EF4909581959F4F0895709561954A
:100EE0007F4F0895AA1BBB1B51E107C0AA1FBB1F60
:100EF000A617B70710F0A61BB70B881F991F5A95A6
:100F0000A9F780959095BC01CD010895EE0FFF1FC4
:100F10000590F491E02D099481E090E0F8940C9410
:060F20009107F894FFCFD9
:100F2600FF5A5200500051004F000C0018000D00EF
:100F36000E00280029002C000F0012001C000B00D8
:100F46005200500051004F0012001C000B000F0011
:100F560057002A0056004D004E004B004A00030081
:100F660006000700080009000A000B000C000D002F
:100F76000000020003000400060007000000000055
:0E0F86006D01D6000501B401360114012801E9
:103800000C94341C0C94511C0C94511C0C94511CA1
:103810000C94511C0C94511C0C94511C0C94511C74
:103820000C94511C0C94511C0C94511C0C94511C64
:103830000C94511C0C94511C0C94511C0C94511C54
:103840000C94511C0C94511C0C94511C0C94511C44
:103850000C94511C0C94511C0C94511C0C94511C34
:103860000C94511C0C94511C11241FBECFEFD4E0BA
:10387000DEBFCDBF11E0A0E0B1E0E4EAFFE302C0AB
:1038800005900D92A230B107D9F712E0A2E0B1E0A5
:1038900001C01D92AD30B107E1F70E94361D0C94B6
:1038A000D01F0C94001C982F9595959595959595FE
:1038B000905D8F708A307CF0282F295A8091C0004B
:1038C00085FFFCCF9093C6008091C00085FFFCCFA0
:1038D0002093C6000895282F205DF0CF982F809167
:1038E000C00085FFFCCF9093C6000895EF92FF9231
:1038F0000F931F93EE24FF2487018091C00087FD62
:1039000017C00894E11CF11C011D111D81E4E8168B
:1039100082E4F8068FE0080780E0180770F3E09172
:103920000401F091050109958091C00087FFE9CF5E
:103930008091C6001F910F91FF90EF9008950E9413
:10394000761C982F8091C00085FFFCCF9093C60015
:1039500091362CF490330CF09053892F089597559D
:10396000892F08951F930E949F1C182F0E949F1C4F
:103970001295107F810F1F910895882351F0982F81
:1039800091508091C00087FFFCCF8091C6009923A1
:10399000B9F708951F93182F0E94761C803249F0C2
:1039A000809103018F5F809303018530C1F01F91E7
:1039B00008958091C00085FFFCCF84E18093C6000C
:1039C0008091C00085FFFCCF1093C6008091C0009D
:1039D00085FFFCCF80E18093C6001F910895E091A0
:1039E0000401F091050109951F9108950E94761C2C
:1039F000803241F0809103018F5F80930301853015
:103A000081F008958091C00085FFFCCF84E1809310
:103A1000C6008091C00085FFFCCF80E18093C60086
:103A20000895E0910401F09105010995089510921F
:103A30000A028823D1F090E040E951E02D9A28EE67
:103A400033E0FA013197F1F721503040D1F72D984A
:103A500028EE33E0FA013197F1F721503040D1F7E9
:103A60009F5F981758F380930A0208953F924F92F0
:103A70005F926F927F928F929F92AF92BF92CF92FE
:103A8000DF92EF92FF920F931F93CF93DF9300008B
:103A900083E38093C4001092C50088E18093C10045
:103AA00086E08093C2005098589A259A81E00E943F
:103AB000171D44E1F42E3EE1E32E24E9D22E96E0D8
:103AC000C92E80E1B82EAA24A39401E4902E16E515
:103AD000812EB2E57B2EA0E26A2EF9E45F2EE3E5AB
:103AE0004E2E70E5372E0E94761C8033B1F1813363
:103AF00009F441C0803409F479C0813409F48CC0E0
:103B0000823471F1853409F47BC0803531F182351E
:103B100021F1813511F1853509F48DC0863509F41F
:103B20009DC0843609F4AEC0843709F41BC18537C3
:103B300009F485C1863709F47AC0809103018F5F4B
:103B400080930301853079F6E0910401F09105013D
:103B500009950E94761C803351F60E94F61CC3CF53
:103B600093E18091C00087FFFCCF8091C60099232C
:103B7000A1F39150F6CF0E94761C8032F1F680912D
:103B8000C00085FFFCCFF092C6008091C00085FF89
:103B9000FCCF9092C6008091C00085FFFCCF809240
:103BA000C6008091C00085FFFCCF7092C600809156
:103BB000C00085FFFCCF6092C6008091C00085FFE9
:103BC000FCCF5092C6008091C00085FFFCCF409290
:103BD000C6008091C00085FFFCCF3092C600809166
:103BE000C00085FFFCCFB092C6007DCF0E94761C3E
:103BF000863808F4B2CF0E94761C0E94F61C73CF60
:103C000094E08091C00087FFFCCF8091C60099238B
:103C100009F4A3CF9150F5CF0E94761C8038D1F0E3
:103C2000813861F1823809F499C0883979F080E0EF
:103C30000E94CA1C58CF0E94761C809306010E94E5
:103C4000761C809307010E94F61C4DCF83E00E94F2
:103C5000CA1C49CF82E00E94CA1C45CF0E94761C34
:103C6000803309F486C192E08091C00087FFFCCFC9
:103C70008091C6009923D9F29150F6CF81E00E943D
:103C8000CA1C31CF0E94761C809309020E94761CC8
:103C90008093080280910C028E7F80930C020E9418
:103CA000761C853429F480910C02816080930C028B
:103CB0008091080290910902892B89F000E010E0C0
:103CC0000E94761CF801E85FFE4F80830F5F1F4F54
:103CD00080910802909109020817190788F30E9441
:103CE000761C803209F029CF80910C0280FFD1C070
:103CF0004091060150910701440F551F5093070151
:103D000040930601A0910802B09109021097C9F0F2
:103D1000E8E0F1E09A01BD016E0F7F1FF999FECF37
:103D200032BD21BD819180BDFA9AF99A2F5F3F4F34
:103D3000E617F70799F74A0F5B1F50930701409367
:103D400006018091C00085FFFCCFF092C6008091F3
:103D5000C00085FFFCCFB092C600C5CE80E10E94B6
:103D6000CA1CC1CE0E94761C809309020E94761C58
:103D7000809308028091060190910701880F991F96
:103D800090930701809306010E94761C853409F404
:103D90007AC080910C028E7F80930C020E94761C68
:103DA000803209F0A0CE8091C00085FFFCCFF09258
:103DB000C600A0910802B09109021097B9F1809154
:103DC0000C02182F1170082F0270E0910601F0917B
:103DD00007019F012F5F3F4FB90140E050E01123E1
:103DE000B1F4002339F494918091C00085FFFCCF99
:103DF0009093C6004F5F5F4FCB010196F9014A17C0
:103E00005B0780F4BC012F5F3F4F112351F3F999F9
:103E1000FECFF2BDE1BDF89A90B58091C00085FF5C
:103E2000FCCFE6CF70930701609306018091C0003C
:103E300085FDD9CE8091C00085FFF8CFD4CE0E94F9
:103E4000761C803209F079CE8091C00085FFFCCFCE
:103E5000F092C6008091C00085FFFCCFE092C600C2
:103E60008091C00085FFFCCFD092C6008091C00039
:103E700085FFFCCFC092C6008091C00085FFFCCFBB
:103E8000B092C60030CE80910C02816080930C020B
:103E900085CF809107018823880F880B8A21809322
:103EA0000B028091060190910701880F991F909352
:103EB0000701809306018091080280FF09C080916C
:103EC00008029091090201969093090280930802DA
:103ED000F894F999FECF1127E0910601F0910701BE
:103EE000C8E0D1E08091080290910902103091F46D
:103EF0000091570001700130D9F303E0009357009F
:103F0000E8950091570001700130D9F301E1009369
:103F10005700E89509901990009157000170013001
:103F2000D9F301E000935700E8951395103498F009
:103F300011270091570001700130D9F305E000937B
:103F40005700E8950091570001700130D9F301E165
:103F500000935700E8953296029709F0C7CF1030CA
:103F600011F00296E5CF11248091C00085FFE9CEC3
:103F7000ECCE0E94761C0E94761C182F0E94761CA4
:103F8000112351F0113021F086E00E94CA1CABCD04
:103F900084E90E94CA1CA7CD8EE10E94CA1CA3CD51
:043FA000F894FFCFC3
:023FA40080009B
:0400000300003800C1
:00000001FF
